:100000000C9458000C9480000C9480000C94800098
:100010000C9480000C9480000C9480000C94800060
:100020000C9480000C9480000C9480000C94800050
:100030000C9480000C9480000C9480000C94800040
:100040000C94E6050C9480000C9456060C94300633
:100050000C9480000C9480000C9480000C94800020
:100060000C9488060C9480000000000025002800F5
:100070002B00040404040404040402020202020229
:10008000030303030303010204081020408001025C
:1000900004081020010204081020000000080002DB
:1000A0000100000304070000000000000000A70793
:1000B00011241FBECFEFD8E0DEBFCDBF11E0A0E01E
:1000C000B1E0EAE2F9E102C005900D92A239B10770
:1000D000D9F722E0A2E9B1E001C01D92AE3FB2071C
:1000E000E1F710E0C8E5D0E004C02197FE010E94CE
:1000F0008D0CC735D107C9F70E94E0070C94930C0B
:100100000C94000090E0FC01E656FF4F2491FC01A6
:10011000EA57FF4F3491FC01EE58FF4FE491EE2374
:10012000C9F0222339F0233001F1A8F4213019F16C
:10013000223029F1F0E0EE0FFF1FE859FF4FA591A3
:10014000B4918FB7F894EC91611126C030953E239D
:100150003C938FBF08952730A9F02830C9F0243090
:1001600049F7809180008F7D03C0809180008F7758
:1001700080938000DFCF84B58F7784BDDBCF84B5DB
:100180008F7DFBCF8091B0008F778093B000D2CF6E
:100190008091B0008F7DF9CF3E2BDACF8E508064F6
:1001A00080937C0080917A00806480937A008091B3
:1001B0007A0086FDFCCF80917800909179000895B7
:1001C0003FB7F8948091510290915202A09153024E
:1001D000B091540226B5A89B05C02F3F19F0019697
:1001E000A11DB11D3FBFBA2FA92F982F8827BC0191
:1001F000CD01620F711D811D911D42E0660F771FB9
:10020000881F991F4A95D1F7089508950895AF92D0
:10021000BF92CF92DF92EF92FF920F931F93CF93F3
:10022000DF936C017B018B01040F151FEB015E0155
:10023000AE18BF08C017D10759F06991D601ED91EA
:10024000FC910190F081E02DC6010995892B79F789
:10025000C501DF91CF911F910F91FF90EF90DF903B
:10026000CF90BF90AF900895FC01538D448D252F02
:1002700030E0842F90E0821B930B541710F0CF9640
:10028000089501970895FC01918D828D981761F072
:10029000A28DAE0FBF2FB11D5D968C91928D9F5F89
:1002A0009F73928F90E008958FEF9FEF0895FC0168
:1002B000918D828D981731F0828DE80FF11D858D1B
:1002C00090E008958FEF9FEF0895FC01918D228DAE
:1002D000892F90E0805C9F4F821B91098F73992733
:1002E000089585E592E00E94650121E0892B09F4DB
:1002F00020E0822F089580E090E0892B29F00E9471
:10030000710181110C9400000895FC01A48DA80FC7
:10031000B92FB11DA35ABF4F2C91848D90E0019647
:100320008F739927848FA689B7892C93A089B18967
:100330008C91837080648C93938D848D981306C008
:100340000288F389E02D80818F7D80830895EF926C
:10035000FF920F931F93CF93DF93EC0181E0888F7F
:100360009B8D8C8D98131AC0E889F989808185FF4F
:1003700015C09FB7F894EE89FF896083E889F989F1
:1003800080818370806480839FBF81E090E0DF91F3
:10039000CF911F910F91FF90EF900895F62E0B8D46
:1003A00010E00F5F1F4F0F731127E02E8C8D8E1101
:1003B0000CC00FB607FCFACFE889F989808185FF68
:1003C000F5CFCE010E948501F1CFEB8DEC0FFD2F13
:1003D000F11DE35AFF4FF0829FB7F8940B8FEA8923
:1003E000FB8980818062CFCFCF93DF93EC01888D32
:1003F0008823B9F0AA89BB89E889F9898C9185FDA0
:1004000003C0808186FD0DC00FB607FCF7CF8C912D
:1004100085FFF2CF808185FFEDCFCE010E9485015F
:10042000E9CFDF91CF9108952091FA01260F33276C
:10043000331F21323105ECF420911E02FC0190E0C3
:1004400080E0243069F082E00895A091FA012191C2
:10045000AC0146525E4FA40FB52FB11D2C930196EF
:10046000861798F38091FA01680F6093FA0180E093
:10047000089581E0089510921E0281E08093200289
:1004800010921F0261E082E10E94820061E083E13C
:100490000E948200E9EBF0E080818E7F8083808182
:1004A0008D7F808388E48093B80085E48093BC00CE
:1004B0000895CF93DF9391E09093D9018823B9F009
:1004C000C091B800D091BA008091BC008A7B809323
:1004D000BC0060E082E10E94820060E083E10E9453
:1004E00082000E943B02D093BA00C093B800DF9113
:1004F000CF9108950895E0914B0280914A02E81748
:1005000030F4F0E0EC54FE4F808190E008958FEFDE
:100510009FEF089590914B0280914A022FEF3FEF99
:10052000981748F4E92FF0E0EC54FE4F208130E0BA
:100530009F5F90934B02C901089580914A02909168
:100540004B02891B990B0895CF92DF92EF92FF9295
:100550000F931F93CF93DF937C01CB018A012091EE
:10056000B301222389F0EB016B01C40ED51ECC151B
:10057000DD0569F06991D701ED91FC910190F08161
:10058000E02DC7010995F3CF642F0E941402C80122
:10059000DF91CF911F910F91FF90EF90DF90CF905F
:1005A0000895CF93DF931F92CDB7DEB76983209173
:1005B000B3012223F9F020914802203258F021E0C3
:1005C00030E0FC013383228390E080E00F90DF91E4
:1005D000CF91089580914902E82FF0E0ED56FE4F4B
:1005E000998190838F5F809349028093480281E0D4
:1005F00090E0ECCF61E0CE0101960E941402F7CFAB
:1006000090E080E008958F929F92AF92BF92CF9238
:10061000DF92EF92FF920F931F93CF93DF93EC0142
:1006200081E08093B301C09392011092490210922D
:10063000480282EF92E00E94D102109148021132EA
:1006400008F093C00E94E0006B017C0180911E02C3
:10065000811166C082E080931E0281E080932002B7
:100660008FEF80931D021092420210934102A3E982
:10067000B1E0E1E2F2E080E018138AC01092430298
:1006800080914302CC0FDD1FC82BC09343028091A1
:100690001F02813009F080C010921F020E94E0000A
:1006A0006B017C01809143028093BB008091D50156
:1006B0009091D601A091D701B091D801892B8A2BB6
:1006C0008B2B99F00E94E0000091D5011091D6018A
:1006D0002091D7013091D8016C197D098E099F09AD
:1006E0000617170728073907E0F18091BC0083FD42
:1006F000D9CF85EC8093BC000E94E0006B017C01A7
:1007000080911E02823009F449C080911D028F3F02
:1007100061F180911D02803241F180911D0225C05E
:100720008091D5019091D601A091D701B091D801C7
:10073000892B8A2B8B2B09F489CF0E94E0008090B3
:10074000D5019090D601A090D701B090D8016C1936
:100750007D098E099F0986169706A806B90608F036
:1007600075CF8091D4010E945902109249021092D3
:1007700048021092B301DF91CF911F910F91FF902A
:10078000EF90DF90CF90BF90AF909F908F900895A3
:100790009D9191938F5F70CF85EEACCF8091D50105
:1007A0009091D601A091D701B091D801892B8A2BC5
:1007B0008B2B09F4A5CF0E94E0000091D501109188
:1007C000D6012091D7013091D8016C197D098E098D
:1007D0009F09061717072807390708F091CFC1CFDF
:1007E000FC0101900020E9F73197AF01481B590B3C
:1007F000BC0185E592E00C9407018F929F92AF9225
:10080000BF920F931F93CF93DF93CDB7DEB7A1971E
:100810000FB6F894DEBF0FBECDBF19A2423008F468
:100820004AE08E010F5D1F4F842E912CB12CA12C1C
:10083000A50194010E94110AE62FB901CA01EA300C
:10084000F4F4E05DD801EE938D01232B242B252BAE
:1008500079F790E080E0109719F0CD010E94F00345
:10086000A1960FB6F894DEBF0FBECDBFDF91CF913A
:100870001F910F91BF90AF909F908F900895E95C6A
:10088000E1CFCF92DF92EF92FF92CF93DF936B0194
:100890007C016DE285E592E00E94A701EC016627EC
:1008A0007727CB016C197D098E099F094AE00E94C8
:1008B000FD038C0F9D1FDF91CF91FF90EF90DF9094
:1008C000CF900895CF93DF930E94F003EC0184E270
:1008D00091E00E94F0038C0F9D1FDF91CF9108954E
:1008E000BC01990F880B990B97FD0C9441044AE0C9
:1008F0000C94FD03CF92DF92EF92FF920F931F9320
:10090000CF93DF93EC018B0169017A0161357105A9
:10091000BCF087E291E00E94F003BE01DD0F880B7E
:10092000990B4AE00E94FD0384E291E0DF91CF91B0
:100930001F910F91FF90EF90DF90CF900C94F003F8
:1009400084E491E00E94F003CE010E94700483E5EC
:1009500091E00E94F00388E591E00233110564F014
:1009600020E030E048EC51E4C701B6010E94070CDA
:10097000181684F482E691E00E94620467E5CE01D5
:10098000DF91CF911F910F91FF90EF90DF90CF906B
:100990000C94030389E591E0EFCFCF92DF92EF92C1
:1009A000FF920F931F93CF93DF93EC010E94E0001F
:1009B0006B017C0180911E02811166C081E08093F1
:1009C0001E02809320029FEF90931D02109242021C
:1009D000809341028093430280914302CC0FDD1F3C
:1009E0008C2B8093430280911F02813009F08DC0CF
:1009F00010921F020E94E0006B017C018091430273
:100A00008093BB008091D5019091D601A091D70130
:100A1000B091D801892B8A2B8B2BA1F00E94E0008A
:100A20000091D5011091D6012091D7013091D801C4
:100A30006C197D098E099F090617170728073907C2
:100A400008F443C08091BC0083FDD8CF85EC80932F
:100A5000BC000E94E0006B017C0180911E0281308D
:100A600009F455C080914202823008F072C0809132
:100A70004202E1E2F2E0A4EBB1E090E0981751F11C
:100A800021912D939F5FFACF8091D5019091D6014E
:100A9000A091D701B091D801892B8A2B8B2B09F417
:100AA00089CF0E94E0000091D5011091D6012091DC
:100AB000D7013091D8016C197D098E099F0906175D
:100AC00017072807390708F075CF8091D4010E94D5
:100AD000590280E010924B0280934A028230D9F58D
:100AE00082EF92E00E948A02C82F82EF92E00E9479
:100AF0008A0220E0822B9C2BDF91CF911F910F91D6
:100B0000FF90EF90DF90CF90089585EEA0CF809179
:100B1000D5019091D601A091D701B091D801892B30
:100B20008A2B8B2B09F499CF0E94E0000091D5010C
:100B30001091D6012091D7013091D8016C197D090F
:100B40008E099F09061717072807390708F085CF70
:100B5000BCCF82E08ECF90E080E0CECF85ED809359
:100B6000BC008091D5019091D601A091D701B091A0
:100B7000D8010796A11DB11D23E0B695A7959795BD
:100B800087952A95D1F72091BC0024FD03C01092CF
:100B90001E0208954091D5015091D6016091D70170
:100BA0007091D801452B462B472B69F30097A1057F
:100BB000B10541F02AE22A95F1F700C00197A10999
:100BC000B109E1CF8091D4010C9459021F920F9288
:100BD0000FB60F9211242F933F938F939F93AF9350
:100BE000BF9380914D0290914E02A0914F02B0911F
:100BF000500230914C0223E0230F2D3758F5019617
:100C0000A11DB11D20934C0280934D0290934E0282
:100C1000A0934F02B09350028091510290915202E2
:100C2000A0915302B09154020196A11DB11D809371
:100C3000510290935202A0935302B0935402BF9179
:100C4000AF919F918F913F912F910F900FBE0F9079
:100C50001F90189526E8230F0296A11DB11DD2CF33
:100C60001F920F920FB60F9211242F933F934F9321
:100C70005F936F937F938F939F93AF93BF93EF9304
:100C8000FF9385E592E00E948501FF91EF91BF916E
:100C9000AF919F918F917F916F915F914F913F9114
:100CA0002F910F900FBE0F901F9018951F920F92CB
:100CB0000FB60F9211242F938F939F93EF93FF936F
:100CC000E0916502F09166028081E0916B02F09103
:100CD0006C0282FD1BC0908180916E028F5F8F73CA
:100CE00020916F02821741F0E0916E02F0E0EB5A22
:100CF000FD4F958F80936E02FF91EF919F918F91A1
:100D00002F910F900FBE0F901F9018958081F4CFF8
:100D10001F920F920FB60F9211242F933F934F9370
:100D20005F936F937F938F939F93AF93BF93EF9353
:100D3000FF938091B900887F803609F44AC0F0F5AE
:100D4000883209F4A7C018F5803109F49BC0B8F4C3
:100D5000882309F4F9C0883009F494C0FF91EF9119
:100D6000BF91AF919F918F917F916F915F914F91C3
:100D70003F912F910F900FBE0F901F9018958831C3
:100D800009F488C0803251F780931D0214C080346A
:100D900009F49DC040F48033B9F38833F9F68093A9
:100DA0001D0285ECB0C0803509F485C0883509F492
:100DB00096C0883499F60E94AE05D0CF883909F4E0
:100DC0008CC038F5883729F050F4883611F0803718
:100DD00029F683E080931E0210921C0257C08838C7
:100DE00009F47BC0803919F0803809F0B7CF8091C1
:100DF0001C02803208F071C0E0911C0281E08E0F6D
:100E000080931C028091BB00F0E0E450FE4F808391
:100E10003DC0803B39F0E0F4803A09F479C0883A6B
:100E200009F09CCF84E080931E021092FB01109287
:100E3000FA01E0914602F091470209958091FA018A
:100E400081110FC081E08093FA011092DA0109C08C
:100E5000803C09F4A6CF883C09F4A3CF883B09F075
:100E60007DCFE091FB0181E08E0F8093FB01F0E0EC
:100E7000E652FE4F80818093BB009091FB018091F0
:100E8000FA0129C0809143028093BB0085EC8093D6
:100E9000BC0064CF9091420280914102981758F5AE
:100EA000E091420281E08E0F80934202F0E0EF5D1C
:100EB000FD4F8081E9CFE091420281E08E0F809367
:100EC00042028091BB00F0E0EF5DFD4F8083909186
:100ED0004202809141029817C8F285E8D8CFE0918C
:100EE000420281E08E0F809342028091BB00F0E0CD
:100EF000EF5DFD4F80838091200281115CCF81E006
:100F000080931F0284EA8093BC0010921E0226CFB9
:100F100085EC8093BC0010921E0280911C028032EE
:100F200030F4E0911C02F0E0E450FE4F108260913A
:100F30001C0270E0E0914402F09145028CEF91E0D8
:100F4000099510921C020ACF10921D0234CFE5E5DC
:100F5000F2E01382128288EE93E0A0E0B0E0848396
:100F60009583A683B78324E031E03183208325EC89
:100F700030E03587248724EC30E03787268720EC63
:100F800030E0318B208B21EC30E0338B228B22EC54
:100F900030E0358B248B26EC30E0378B268B118E9E
:100FA000128E138E148EE2EFF2E01382128284838B
:100FB0009583A683B78386E191E09183808308952A
:100FC000CF93DF93CDB7DEB72A970FB6F894DEBF85
:100FD0000FBECDBF789484B5826084BD84B5816036
:100FE00084BD85B5826085BD85B5816085BD8091F4
:100FF0006E00816080936E0010928100809181006C
:101000008260809381008091810081608093810063
:10101000809180008160809380008091B100846025
:101020008093B1008091B00081608093B000809186
:101030007A00846080937A0080917A008260809345
:101040007A0080917A00816080937A0080917A00A2
:10105000806880937A001092C100E0916502F0915F
:10106000660282E08083E0916102F0916202108268
:10107000E0916302F09164028FEC808310926D0224
:10108000E0916902F0916A0286E08083E091670254
:10109000F0916802808180618083E0916702F09125
:1010A0006802808188608083E0916702F091680225
:1010B000808180688083E0916702F091680280817E
:1010C0008F7D808310924B0210924A021092490247
:1010D000109248020E943B0285E091E09093470203
:1010E0008093460286E091E090934502809344020B
:1010F00090E0292E90E0392E8EE00E94CE00BC01B7
:10110000990F880B990B0E94570B20E030E040EAC2
:1011100050E40E940C0C20E030E048EC52E40E94C5
:101120000C0C20E030EC4FE754E40E94B40A6B0151
:101130007C018FE00E94CE009A87898780E10E941F
:10114000CE008C0180E190E00E94CD044C0181E151
:1011500090E00E94CD045C019401ACE9BFEF0E94D5
:101160007E0C2FEF33E040E050E00E94F209DA01FC
:10117000C9018C599F4FAF4FBF4F89839A83AB836F
:10118000BC839501ACE9BFEF0E947E0C2FEF33E0EA
:1011900040E050E00E94F209DA01C9018C599F4FEA
:1011A000AF4FBF4F8D839E83AF83B8878CE691E0AE
:1011B0000E94F003A7019601C701B6010E94790CB5
:1011C000882309F47DC083E791E00E94F00384E264
:1011D00091E00E94F0038FE791E00E94F003898183
:1011E0009A810E94700487E891E00E94620489E875
:1011F00091E00E94F0038D819E810E94700487E837
:1012000091E00E946204A985BA85A01BB10BBA8740
:10121000A987B7FF05C0B195A195B109BA87A9877C
:1012200089859A858536910554F062E580E190E0E4
:101230000E94030362E581E190E00E940303A7019D
:10124000960169817A8180E190E00E947A04A70189
:1012500096016D817E8181E190E00E947A040E9476
:10126000E0006B017C0188E8882E83E1982EA12C98
:10127000B12C0E94E0006C197D098E099F09683E1F
:10128000734081059105A8F391E0891A9108A1089E
:10129000B108A8EECA0EA3E0DA1EE11CF11C81140D
:1012A0009104A104B10429F72114310409F424CFD5
:1012B0000E947101882309F41FCF0E9400001CCFF7
:1012C00046015701E894B7F82FEF3FEF4FE75FE78C
:1012D000C501B4010E94790C81110DC02FEF3FEFC1
:1012E0004FE75FE7C501B4010E94AF0A18161CF46E
:1012F00087E791E06ACF2FEF3FEF4FE75FE4C70149
:10130000B6010E94070C18161CF48BE791E05DCF24
:101310002FEF3FEF4FE75FECC701B6010E94AF0A26
:1013200087FDF3CF20E030E0A901C701B6010E949C
:10133000AF0A87FF54C06DE285E592E00E94A701E5
:10134000C701B60190582AE037ED43EA5BE30E94FB
:10135000430A2B013C010E94260B4B015C010E94B9
:10136000550B9B01AC01C301B2010E94420A2B0143
:101370003C014AE0C501B4010E94FD036EE285E52F
:1013800092E00E94A70120E030E040E251E4C30176
:10139000B2010E940C0C2B013C010E94260B4B0158
:1013A000B12CA12C4AE0C501B4010E94FD03C50186
:1013B000B4010E94550B9B01AC01C301B2010E9414
:1013C000420A20E030E040E251E40E940C0C0E940E
:1013D000260B90E080E04AE00E94FD03F8CEC701B2
:1013E000B601B1CF052E97FB1EF400940E94090AA6
:1013F00057FD07D00E94110A07FC03D04EF40C944D
:10140000090A50954095309521953F4F4F4F5F4FBA
:10141000089590958095709561957F4F8F4F9F4F60
:101420000895A1E21A2EAA1BBB1BFD010DC0AA1F25
:10143000BB1FEE1FFF1FA217B307E407F50720F03D
:10144000A21BB30BE40BF50B661F771F881F991FB8
:101450001A9469F760957095809590959B01AC0101
:10146000BD01CF010895A29FB001B39FC001A39F0A
:10147000700D811D1124911DB29F700D811D1124CD
:10148000911D08955058BB27AA270E945A0A0C9410
:10149000CD0B0E94BF0B38F00E94C60B20F039F430
:1014A0009F3F19F426F40C94BC0B0EF4E095E7FB77
:1014B0000C94B60BE92F0E94DE0B58F3BA176207A3
:1014C00073078407950720F079F4A6F50C94000CB7
:1014D0000EF4E0950B2EBA2FA02D0B01B90190014F
:1014E0000C01CA01A0011124FF27591B99F0593F93
:1014F00050F4503E68F11A16F040A22F232F342FDB
:101500004427585FF3CF469537952795A795F04028
:101510005395C9F77EF41F16BA0B620B730B840B3D
:10152000BAF09150A1F0FF0FBB1F661F771F881FF5
:10153000C2F70EC0BA0F621F731F841F48F487954D
:1015400077956795B795F7959E3F08F0B0CF93953F
:10155000880F08F09927EE0F9795879508950E94B8
:10156000920B08F481E008950E94C80A0C94CD0BF8
:101570000E94C60B58F00E94BF0B40F029F45F3F59
:1015800029F00C94B60B51110C94010C0C94BC0B6B
:101590000E94DE0B68F39923B1F3552391F3951B59
:1015A000550BBB27AA2762177307840738F09F5F84
:1015B0005F4F220F331F441FAA1FA9F335D00E2EF1
:1015C0003AF0E0E832D091505040E695001CCAF75E
:1015D0002BD0FE2F29D0660F771F881FBB1F261721
:1015E00037074807AB07B0E809F0BB0B802DBF01F8
:1015F000FF2793585F4F3AF09E3F510578F00C94C7
:10160000B60B0C94010C5F3FE4F3983ED4F386953F
:1016100077956795B795F7959F5FC9F7880F911DE7
:101620009695879597F90895E1E0660F771F881FD3
:10163000BB1F621773078407BA0720F0621B730B86
:10164000840BBA0BEE1F88F7E09508950E94E60B15
:1016500088F09F5798F0B92F9927B751B0F0E1F073
:10166000660F771F881F991F1AF0BA95C9F714C023
:10167000B13091F00E94000CB1E008950C94000C80
:10168000672F782F8827B85F39F0B93FCCF386955C
:1016900077956795B395D9F73EF4909580957095B9
:1016A00061957F4F8F4F9F4F0895E89409C097FB36
:1016B0003EF490958095709561957F4F8F4F9F4F29
:1016C0009923A9F0F92F96E9BB279395F69587956D
:1016D00077956795B795F111F8CFFAF4BB0F11F430
:1016E00060FF1BC06F5F7F4F8F4F9F4F16C08823D7
:1016F00011F096E911C0772321F09EE8872F762F0D
:1017000005C0662371F096E8862F70E060E02AF04D
:101710009A95660F771F881FDAF7880F9695879539
:1017200097F90895990F0008550FAA0BE0E8FEEF0E
:1017300016161706E807F907C0F012161306E40795
:10174000F50798F0621B730B840B950B39F40A268E
:1017500061F0232B242B252B21F408950A2609F46C
:10176000A140A6958FEF811D811D089597F99F6770
:1017700080E870E060E008959FEF80EC0895002419
:101780000A941616170618060906089500240A94E6
:1017900012161306140605060895092E0394000C6C
:1017A00011F4882352F0BB0F40F4BF2B11F460FFFB
:1017B00004C06F5F7F4F8F4F9F4F089557FD905824
:1017C000440F551F59F05F3F71F04795880F97FB05
:1017D000991F61F09F3F79F08795089512161306BF
:1017E0001406551FF2CF4695F1DF08C016161706EE
:1017F0001806991FF1CF8695710561050894089523
:10180000E894BB2766277727CB0197F908950E94B4
:10181000920B08F48FEF08950E941F0C0C94CD0BCF
:101820000E94BF0B38F00E94C60B20F0952311F0E8
:101830000C94B60B0C94BC0B11240C94010C0E945C
:10184000DE0B70F3959FC1F3950F50E0551F629F1B
:10185000F001729FBB27F00DB11D639FAA27F00D09
:10186000B11DAA1F649F6627B00DA11D661F829F30
:101870002227B00DA11D621F739FB00DA11D621F15
:10188000839FA00D611D221F749F3327A00D611D32
:10189000231F849F600D211D822F762F6A2F112414
:1018A0009F5750409AF0F1F088234AF0EE0FFF1F47
:1018B000BB1F661F771F881F91505040A9F79E3F9E
:1018C000510580F00C94B60B0C94010C5F3FE4F3CF
:1018D000983ED4F3869577956795B795F795E795F4
:1018E0009F5FC1F7FE2B880F911D9695879597F9FD
:1018F00008950E94920B880B990B08950E94330A59
:10190000332312F48A1B9B0B0C94880C0E94330A1D
:10191000B7FF0895821B930B0895EE0FFF1F0590EC
:0A192000F491E02D0994F894FFCF34
:10192A0000000000A70107013401F4016501430129
:10193A00570100000000D102A40200037A029D02AE
:10194A008A027B020D0A004E6F2077617465726904
:10195A006E67206E656564656420666F72206E6FBF
:10196A00646520005761746572696E67206E6F64E2
:10197A00652000206174200031352063632F6D6972
:10198A006E0031302063632F6D696E0054656D708F
:10199A003A20006E616E00696E66006F76660053CB
:1019AA006F696C313A20002500536F696C323A2016
:0219BA0000002B
:00000001FF
