:100000000C945D000C9485000C9485000C94850084
:100010000C9485000C9485000C9485000C9485004C
:100020000C9485000C9485000C9485000C94E304DA
:100030000C9485000C9485000C9485000C9485002C
:100040000C9441040C9485000C94B1040C948B0422
:100050000C9485000C9485000C9485000C9485000C
:100060000C949F050C9485000000000024002700DC
:100070002A0000000000250028002B0004040404CE
:100080000404040402020202020203030303030342
:10009000010204081020408001020408102001021F
:1000A00004081020000000080002010000030407FB
:1000B0000000000000000000BE0611241FBECFEFAC
:1000C000D8E0DEBFCDBF11E0A0E0B1E0E8E5F2E1AD
:1000D00002C005900D92A635B107D9F722E0A6E53A
:1000E000B1E001C01D92AF3CB207E1F710E0CDE5F1
:1000F000D0E004C02197FE010E942409CC35D1072D
:10010000C9F70E942D070C942A090C9400008F92C5
:100110009F92AF92BF92FF920F931F93CF93DF9363
:10012000F090CC022BE02F1508F44CC02091CE02A9
:1001300008E512E0021B110927FD1395000F111F9E
:10014000000F111F2091CD02C8E8D0E0C21BD109D9
:1001500027FDD395CC0FDD1FCC0FDD1F4E010D2EDB
:10016000000CAA08BB089801012E000C440B550B8B
:10017000281939094A095B09DC010E94DF0824EBD0
:1001800030E040E050E00E94B508820E931EA41EAD
:10019000B51E8C169D062CF0E801801691060CF415
:1001A000E4012297CC0FDD1F2FB7F8948F2D90E03C
:1001B000FC01EE0FFF1FE80FF91FE955FD4FD28339
:1001C000C1832FBFDF91CF911F910F91FF90BF90FF
:1001D000AF909F908F90089590E0FC01EC55FF4FF9
:1001E0002491FC01E057FF4F3491FC01E458FF4F8C
:1001F000E491EE23C9F0222339F0233001F1A8F471
:10020000213019F1223029F1F0E0EE0FFF1FEE58F6
:10021000FF4FA591B4918FB7F894EC91611126C06E
:1002200030953E233C938FBF08952730A9F02830A6
:10023000C9F0243049F7809180008F7D03C0809100
:1002400080008F7780938000DFCF84B58F7784BD67
:10025000DBCF84B58F7DFBCF8091B0008F7780930B
:10026000B000D2CF8091B0008F7DF9CF3E2BDACF96
:10027000CF93DF9390E0FC01E057FF4F2491845827
:100280009F4FFC0184918823D1F090E0880F991F43
:10029000FC01E859FF4FA591B491FC01EE58FF4FC6
:1002A000C591D49161110EC09FB7F8948C91E22F43
:1002B000E0958E238C932881E223E8839FBFDF9112
:1002C000CF9108958FB7F894EC91E22BEC938FBF08
:1002D000F6CF3FB7F8948091FA019091FB01A0917D
:1002E000FC01B091FD0126B5A89B05C02F3F19F078
:1002F0000196A11DB11D3FBFBA2FA92F982F8827A6
:10030000BC01CD01620F711D811D911D42E0660F80
:10031000771F881F991F4A95D1F708958F929F9252
:10032000AF92BF92CF92DF92EF92FF924B015C01AE
:100330000E9469016B017C010E9469016C197D09B1
:100340008E099F09683E734081059105A8F321E05D
:10035000821A9108A108B10888EEC80E83E0D81E61
:10036000E11CF11C81149104A104B10429F7FF9050
:10037000EF90DF90CF90BF90AF909F908F900895B7
:10038000E091F101F091F201309729F01092EC0127
:100390001092EB0109940895CF93DF93AC01E091A3
:1003A000EF01F091F0013097F1F09091EE01809122
:1003B000ED019817C0F090E0292F30E0261737079D
:1003C00054F4D901AA5ABE4F240F351FE9012881E0
:1003D0002C939F5FF1CF1092EE016093ED01CB0162
:1003E000DF91CF910994DF91CF910895AF92BF92A1
:1003F000CF92DF92EF92FF920F931F93CF93DF93F1
:100400006C017B018B01040F151FEB015E01AE181F
:10041000BF08C017D10759F06991D601ED91FC9141
:100420000190F081E02DC6010995892B79F7C5016E
:10043000DF91CF911F910F91FF90EF90DF90CF90C0
:10044000BF90AF900895FC01538D448D252F30E06F
:10045000842F90E0821B930B541710F0CF960895D1
:1004600001970895FC01918D828D981761F0A28DFE
:10047000AE0FBF2FB11D5D968C91928D9F5F9F73C4
:10048000928F90E008958FEF9FEF0895FC01918D7A
:10049000828D981731F0828DE80FF11D858D90E0E7
:1004A00008958FEF9FEF0895FC01918D228D892F84
:1004B00090E0805C9F4F821B91098F73992708956C
:1004C0008EEF91E00E94540221E0892B09F420E094
:1004D000822F089580E090E0892B29F00E9460022D
:1004E00081110C9400000895FC01A48DA80FB92F70
:1004F000B11DA35ABF4F2C91848D90E001968F734C
:100500009927848FA689B7892C93A089B1898C916A
:10051000837080648C93938D848D981306C00288B9
:10052000F389E02D80818F7D80830895EF92FF9283
:100530000F931F93CF93DF93EC0181E0888F9B8D06
:100540008C8D98131AC0E889F989808185FF15C0C0
:100550009FB7F894EE89FF896083E889F9898081E3
:100560008370806480839FBF81E090E0DF91CF91B2
:100570001F910F91FF90EF900895F62E0B8D10E0D4
:100580000F5F1F4F0F731127E02E8C8D8E110CC043
:100590000FB607FCFACFE889F989808185FFF5CF8E
:1005A000CE010E947402F1CFEB8DEC0FFD2FF11DF7
:1005B000E35AFF4FF0829FB7F8940B8FEA89FB89CB
:1005C00080818062CFCFCF93DF93EC01888D882329
:1005D000B9F0AA89BB89E889F9898C9185FD03C0A6
:1005E000808186FD0DC00FB607FCF7CF8C9185FF8B
:1005F000F2CF808185FFEDCFCE010E947402E9CF5A
:10060000DF91CF91089520919C01260F3327331F4E
:1006100021323105ECF42091C001FC0190E080E032
:10062000243069F082E00895A0919C012191AC01F1
:1006300044585E4FA40FB52FB11D2C930196861719
:1006400098F380919C01680F60939C0180E008956D
:1006500081E008951092C00181E08093C201109260
:10066000C10161E082E10E94EC0061E083E10E944F
:10067000EC00E9EBF0E080818E7F808380818D7FCC
:10068000808388E48093B80085E48093BC0008955B
:100690000895E091EE018091ED01E81730F4F0E06B
:1006A000EA5AFE4F808190E008958FEF9FEF089502
:1006B0009091EE018091ED012FEF3FEF981748F4F4
:1006C000E92FF0E0EA5AFE4F208130E09F5F9093DF
:1006D000EE01C90108958091ED019091EE01891B11
:1006E000990B0895CF93DF93CB01EA01642F0E9409
:1006F0000303CE01DF91CF910895CF93DF931F9233
:10070000CDB7DEB7698361E0CE0101960E94030395
:1007100081E090E00F90DF91CF91089590E080E02C
:100720000895CF93C091F3016091F4018BE992E0B9
:100730000E947D036C2F8BE992E0CF910C947D0396
:10074000FC0101900020E9F73197AF01481B590BDC
:10075000BC018EEF91E00C94F6019091ED01809137
:10076000EE019817B1F18BE992E00E9458038735AA
:10077000B9F484E291E00E94A00383E391E00E9437
:10078000A00361E089E00E94EC0068E873E180E08A
:1007900090E00E948E0160E089E00E94EC00DDCFD5
:1007A0008235D9F686E391E00E94A00383E391E0CD
:1007B0000E94A00386E990E00E94870060ED77E048
:1007C00080E090E00E948E018AE590E00E94870020
:1007D000C4CF0895CF93DF9385ED8093BC008091C3
:1007E000780190917901A0917A01B0917B010796EF
:1007F000A11DB11D23E0B695A795979587952A95DC
:10080000D1F72091BC0024FD03C01092C00136C076
:10081000409178015091790160917A0170917B014A
:10082000452B462B472B69F30097A105B10541F0F5
:100830002AE22A95F1F700C00197A109B109E1CF99
:100840008091770191E0909376018823B9F0C0916F
:10085000B800D091BA008091BC008A7B8093BC0024
:1008600060E082E10E94EC0060E083E10E94EC0025
:100870000E942A03D093BA00C093B800DF91CF91B1
:1008800008951F920F920FB60F9211242F933F934A
:100890008F939F93AF93BF938091F6019091F7014F
:1008A000A091F801B091F9013091F50123E0230FF7
:1008B0002D3758F50196A11DB11D2093F5018093A8
:1008C000F6019093F701A093F801B093F90180919C
:1008D000FA019091FB01A091FC01B091FD010196FC
:1008E000A11DB11D8093FA019093FB01A093FC011F
:1008F000B093FD01BF91AF919F918F913F912F9147
:100900000F900FBE0F901F90189526E8230F0296A8
:10091000A11DB11DD2CF1F920F920FB60F921124BD
:100920002F933F934F935F936F937F938F939F93F7
:10093000AF93BF93EF93FF938EEF91E00E94740209
:10094000FF91EF91BF91AF919F918F917F916F91A7
:100950005F914F913F912F910F900FBE0F901F907D
:1009600018951F920F920FB60F9211242F938F9309
:100970009F93EF93FF93E0910E02F0910F0280811D
:10098000E0911402F091150282FD1BC090818091CC
:1009900017028F5F8F7320911802821741F0E09148
:1009A0001702F0E0E250FE4F958F80931702FF91FF
:1009B000EF919F918F912F910F900FBE0F901F90ED
:1009C00018958081F4CF1F920F920FB60F921124C9
:1009D0002F933F934F935F936F937F938F939F9347
:1009E000AF93BF93CF93DF93EF93FF938091E60193
:1009F000C091CB02D0E087FF24C0109285001092F6
:100A000084008091E6018F5F8093E6018091E6018A
:100A1000082E000C990B8C179D0724F48091E60199
:100A20008C30C4F1809184009091850004968034CC
:100A30009C4908F47AC080918400909185000496C6
:100A400076C08091E601082E000C990B8C179D074B
:100A5000C4F6E091E6018E2FEE0F990BFC01EE0F2C
:100A6000FF1FE80FF91FE955FD4F808186FFC9CFB1
:100A7000E091E6018E2FEE0F990BFC01EE0FFF1FA8
:100A8000E80FF91FE955FD4F808160E08F730E94E8
:100A9000EC00B7CF2091840030918500E091E60111
:100AA0008E2FEE0F990BFC01EE0FFF1FE80FF91FC1
:100AB000E955FD4F81819281820F931F90938900A8
:100AC00080938800E091E6018E2FEE0F990BFC01D8
:100AD000EE0FFF1FE80FF91FE955FD4F808186FFDC
:100AE00011C0E091E6018E2FEE0F990BFC01EE0F85
:100AF000FF1FE80FF91FE955FD4F808161E08F73FB
:100B00000E94EC00FF91EF91DF91CF91BF91AF91E7
:100B10009F918F917F916F915F914F913F912F9115
:100B20000F900FBE0F901F90189580E49CE9909352
:100B30008900809388008FEF8093E601E3CF1F92B6
:100B40000F920FB60F9211242F933F934F935F9301
:100B50006F937F938F939F93AF93BF93EF93FF9385
:100B60008091B900887F803609F44AC0F0F5883258
:100B700009F4A7C018F5803109F49BC0B8F48823A4
:100B800009F4F9C0883009F494C0FF91EF91BF9146
:100B9000AF919F918F917F916F915F914F913F9115
:100BA0002F910F900FBE0F901F901895883109F468
:100BB00088C0803251F78093BF0114C0803409F49B
:100BC0009DC040F48033B9F38833F9F68093BF01B8
:100BD00085ECB0C0803509F485C0883509F496C02D
:100BE000883499F60E94EA03D0CF883909F48CC082
:100BF00038F5883729F050F4883611F0803729F617
:100C000083E08093C0011092BE0157C0883809F478
:100C10007BC0803919F0803809F0B7CF8091BE01D0
:100C2000803208F071C0E091BE0181E08E0F8093A8
:100C3000BE018091BB00F0E0E256FE4F80833DC0D4
:100C4000803B39F0E0F4803A09F479C0883A09F041
:100C50009CCF84E08093C00110929D0110929C0172
:100C6000E091E901F091EA01099580919C018111DF
:100C70000FC081E080939C0110927C0109C0803CF0
:100C800009F4A6CF883C09F4A3CF883B09F07DCFB7
:100C9000E0919D0181E08E0F80939D01F0E0E4588A
:100CA000FE4F80818093BB0090919D0180919C01BB
:100CB00029C08091E5018093BB0085EC8093BC0046
:100CC00064CF9091E4018091E301981758F5E09189
:100CD000E40181E08E0F8093E401F0E0ED53FE4FDC
:100CE0008081E9CFE091E40181E08E0F8093E401FF
:100CF0008091BB00F0E0ED53FE4F80839091E401C2
:100D00008091E3019817C8F285E8D8CFE091E4011B
:100D100081E08E0F8093E4018091BB00F0E0ED5301
:100D2000FE4F80838091C20181115CCF81E080936E
:100D3000C10184EA8093BC001092C00126CF85ECEB
:100D40008093BC001092C0018091BE01803230F4CB
:100D5000E091BE01F0E0E256FE4F10826091BE01CC
:100D600070E0E091E701F091E8018EE991E00995EA
:100D70001092BE010ACF1092BF0134CF109201022F
:100D80001092000288EE93E0A0E0B0E080930202AF
:100D900090930302A0930402B093050224E031E093
:100DA0003093FF012093FE0125EC30E030930B02DD
:100DB00020930A0224EC30E030930D0220930C02C1
:100DC00020EC30E030930F0220930E0221EC30E053
:100DD000309311022093100222EC30E03093130282
:100DE0002093120226EC30E0309315022093140277
:100DF00010921702109218021092190210921A0201
:100E000010929E0210929D0280939F029093A002E6
:100E1000A093A102B093A20286E191E090939C027C
:100E200080939B028091CB028C3098F491E0980FD4
:100E30009093CB028093CC0290E0FC01EE0FFF1F59
:100E4000E80FF91FE955FD4F88EB9BE09283818302
:100E500008958FEF8093CC020895CF93DF93CDB7A1
:100E6000DEB7A1970FB6F894DEBF0FBECDBF789462
:100E700084B5826084BD84B5816084BD85B582609F
:100E800085BD85B5816085BD80916E008160809350
:100E90006E001092810080918100826080938100B9
:100EA00080918100816080938100809180008160C9
:100EB000809380008091B10084608093B100809124
:100EC000B00081608093B00080917A00846080934C
:100ED0007A0080917A00826080937A0080917A0013
:100EE000816080937A0080917A00806880937A0094
:100EF0001092C1001092EE011092ED011092EC01DF
:100F00001092EB010E942A0380EC91E09093EA0199
:100F10008093E9018CEC91E09093E8018093E701E4
:100F200080E28093BA008DEA93E09093F001809381
:100F3000EF0181E993E09093F2018093F10160E089
:100F40008EE00E94380161E089E00E9438018091C2
:100F5000CC028C3008F051C061E08AE00E94380178
:100F60008091CC02282F30E0F901EE0FFF1FE20F35
:100F7000F31FE955FD4F9081907C9A609083109209
:100F8000CD021092CE022CE0622F0E941809829F9F
:100F9000B001112430E020E0AB01420F531FFA01F1
:100FA000EE0FFF1FE40FF51FE955FD4F908196FDF1
:100FB00016C02F5F3F4F2C30310571F781110FC0E4
:100FC0001092800082E08093810010928500109240
:100FD0008400B19A80916F00826080936F00E091ED
:100FE000CC028E2F90E0FC01EE0FFF1FE80FF91FDF
:100FF000E955FD4F8081806480838AE590E00E94FE
:10100000870060E089E00E94EC00E0910E02F09120
:101010000F0282E08083E0910A02F0910B021082BD
:10102000E0910C02F0910D028FEC80831092160279
:10103000E0911202F091130286E08083E0911002A9
:10104000F0911102808180618083E0911002F09123
:101050001102808188608083E0911002F09111027A
:10106000808180688083E0911002F091110280817C
:101070008F7D808380E4782E9AE0892E912CA12C9C
:10108000B12C00E010E070927C0080917A008064C6
:1010900080937A0080917A0086FDFCCF8091780061
:1010A000909179009093F4018093F30186E491E0AC
:1010B0000E94A003C090F301D090F4010D2C000C0D
:1010C000EE08FF08F7FE3BC06DE28EEF91E00E9454
:1010D000960222273327A9012C193D094E095F09E1
:1010E00019A2CE0181967C01CA01B901A501940122
:1010F0000E94E708605DF70162937F0121153105C9
:101100004105510589F7E114F10419F0C7010E9466
:10111000A00383E391E00E94A00368EE73E080E007
:1011200090E00E948E010115110509F4ACCF0E94D8
:101130006002882309F4A7CF0E940000A4CFA70172
:10114000960119A2CE0181967C01CA01B901A501BF
:1011500094010E94E708605DF70162937F01211509
:1011600031054105510589F7CECF052E97FB1EF4B9
:1011700000940E94CC0857FD07D00E94E70807FCA6
:1011800003D04EF40C94CC085095409530952195A1
:101190003F4F4F4F5F4F08959095809570956195A3
:1011A0007F4F8F4F9F4F08950E940909A59F900D73
:1011B000B49F900DA49F800D911D11240895B7FF39
:1011C0000C94D4080E94D408821B930B0895A1E2CA
:1011D0001A2EAA1BBB1BFD010DC0AA1FBB1FEE1FB1
:1011E000FF1FA217B307E407F50720F0A21BB30BFC
:1011F000E40BF50B661F771F881F991F1A9469F778
:1012000060957095809590959B01AC01BD01CF01D3
:101210000895A29FB001B39FC001A39F700D811DCF
:101220001124911DB29F700D811D1124911D0895EF
:10123000991B79E004C0991F961708F0961B881F28
:101240007A95C9F780950895EE0FFF1F0590F491E8
:08125000E02D0994F894FFCF92
:10125800000000009602F6012302E3025402320263
:101268004602000000007D0372038E0348036B03EF
:10127800580349035761746572696E673A20484993
:101288004748000D0A00526F746174696E672070D8
:101298006F742E2E2E00536F696C204D6F69737416
:0612A8007572653A20009A
:00000001FF
